:020000040800F2
:1000000000280020F51E0008B51B0008BB1B0008D7
:10001000C11B0008C71B0008CD1B00080000000022
:10002000000000000000000000000000D31B0008DA
:10003000DF1B000800000000EB1B0008F71B000896
:100040003D1F00083D1F00083D1F00083D1F000820
:100050003D1F00083D1F00083D1F00083D1F000810
:100060003D1F00083D1F00083D1F00083D1F000800
:100070003D1F00083D1F00083D1F00083D1F0008F0
:100080003D1F00083D1F00083D1F00083D1F0008E0
:100090003D1F00083D1F00083D1F00083D1F0008D0
:1000A0003D1F00083D1F00083D1F00083D1F0008C0
:1000B000051C00083D1F0008000000003D1F00084F
:1000C0003D1F000800000000000000003D1F000868
:1000D000000000003D1F00083D1F00080000000058
:1000E0003D1F00083D1F00083D1F000800000000E4
:1000F0000000000000000000000000000000000000
:0C01000000000000000000005FF808F1A3
:10010C0010B5054C237833B9044B13B10448AFF345
:10011C0000800123237010BD4C0000200000000063
:10012C006C35000808B5034B1BB103490348AFF30A
:10013C00008008BD00000000500000206C35000855
:10014C0080B582B000AF78607B68023B052B2DD860
:10015C0001A252F823F000BF7D01000887010008BE
:10016C00910100089B010008A5010008AF010008DF
:10017C0000F01EFF00F03AFF18E000F023FF00F043
:10018C003FFF13E000F028FF00F044FF0EE000F00A
:10019C000FFF00F02BFF09E000F014FF00F030FF20
:1001AC0004E000F019FF00F035FF00BF00BF083776
:1001BC00BD4680BD80B500AFAD4B1B680C3B062B1C
:1001CC0000F21C8201A252F823F000BFF5010008D6
:1001DC009702000839030008DB0300089D0400089F
:1001EC003D05000809060008A24B02221A6001F026
:1001FC00F3FD0346002B07D0642001F021FD9D4B3D
:10020C001B681846FFF79CFF022000F02DFE0346EA
:10021C00002B0ED000F008FF974B1B68642202FBEA
:10022C0003F3964A1360944B01221A60904B0D22F3
:10023C001A60012000F018FE0346002B15D08E4BDF
:10024C001B685A1C8E4B83FB02135911D317CB1A04
:10025C00642101FB03F3D31A874A1360864B1B6896
:10026C00002B02D1844B01221A60002000F0FCFD0F
:10027C000346002B00F0C48100F0D6FE7E4B012219
:10028C001A607B4B0D221A60BAE17A4B03221A607A
:10029C0001F0A2FD0346002B07D0642001F0D0FC36
:1002AC00744B1B681846FFF74BFF022000F0DCFD77
:1002BC000346002B0ED000F0B7FE6F4B1B68642278
:1002CC0002FB03F36F4A13606B4B01221A60684BFD
:1002DC000E221A60012000F0C7FD0346002B15D03A
:1002EC00654B1B685A1C664B83FB02135911D317C1
:1002FC00CB1A642101FB03F3D31A5F4A13605E4BE4
:10030C001B68002B02D15C4B01221A60002000F00C
:10031C00ABFD0346002B00F0758100F085FE564BBB
:10032C0001221A60524B0E221A606BE1514B0422CF
:10033C001A6001F051FD0346002B07D0642001F038
:10034C007FFC4C4B1B681846FFF7FAFE022000F0AE
:10035C008BFD0346002B0ED000F066FE464B1B684F
:10036C00642202FB03F3484A1360434B01221A60D8
:10037C003F4B0F221A60012000F076FD0346002B44
:10038C0015D03D4B1B685A1C3D4B83FB0213591176
:10039C00D317CB1A642101FB03F3D31A364A13602B
:1003AC00354B1B68002B02D1334B01221A60002005
:1003BC0000F05AFD0346002B00F0268100F034FEBD
:1003CC002D4B01221A602A4B0F221A601CE1294B7B
:1003DC0005221A6001F000FD0346002B07D06420B3
:1003EC0001F02EFC234B1B681846FFF7A9FE0220D8
:1003FC0000F03AFD0346002B0ED000F015FE1E4B0C
:10040C001B68642202FB03F3204A13601A4B01227F
:10041C001A60174B10221A60012000F025FD0346CC
:10042C00002B15D0144B1B685A1C154B83FB021365
:10043C005911D317CB1A642101FB03F3D31A0E4ABB
:10044C0013600D4B1B68002B02D10B4B01221A6061
:10045C00002000F009FD0346002B00F0D78000F0CF
:10046C00E3FD054B01221A60014B10221A60CDE00E
:10047C0010000020300000202C0000201400002070
:10048C001F85EB51180000201C00002020000020CC
:10049C00624B06221A6001F09FFC0346002B07D02A
:1004AC00642001F0CDFB5D4B1B681846FFF748FE3E
:1004BC00022000F0D9FC0346002B0ED000F0B4FD56
:1004CC00574B1B68642202FB03F3564A1360544BD0
:1004DC0001221A60544B11221A60012000F0C4FC56
:1004EC000346002B15D04E4B1B685A1C4F4B83FBFD
:1004FC0002135911D317CB1A642101FB03F3D31A3E
:10050C00474A1360464B1B68002B02D1444B012217
:10051C001A60002000F0A8FC0346002B78D000F0F5
:10052C0083FD3F4B01221A603F4B11221A606FE092
:10053C003A4B07221A6001F04FFC0346002B07D000
:10054C00642001F07DFB354B1B681846FFF7F8FD66
:10055C00022000F089FC0346002B1BD000F064FD48
:10056C002F4B1B68642202FB03F3314A13602C4BA4
:10057C0001221A602F4B01221A602E4B1B682E4A47
:10058C001360294B12221A602C4B2D4A1A602D4BEA
:10059C002D4A1A60012000F067FC0346002B11D095
:1005AC001F4B1A68294B83FB021313449911D31761
:1005BC00C91A0B465B000B4459010B44D11A4B1C56
:1005CC00174A1360002000F04FFC0346002B21D08B
:1005DC0000F02AFD124B01221A60164B01221A6000
:1005EC00144B1B68144A13600F4B12221A60134BE6
:1005FC00134A1A60134B144A1A600BE000BF0AE04E
:10060C0000BF08E000BF06E000BF04E000BF02E04E
:10061C0000BF00E000BF00BF80BD00BF3000002065
:10062C002C00002024000020100000201F85EB511E
:10063C00280000207400002070000020140100200D
:10064C0068000020180100206C00002003B57EA576
:10065C0080B500AF00F03CFB194B4FF6FF72DA602F
:10066C000A2001F0D9FA01224FF40071154801F06B
:10067C0062FF01224FF48061124801F05CFF0022FE
:10068C000421104801F057FF012208210D4801F008
:10069C0052FF012210210B4801F04DFF01222021B5
:1006AC00084801F048FF01224021064801F043FFB1
:1006BC0000228021034801F03EFF00BF80BD00BF37
:1006CC00000C01400008014080B500AF002000F094
:1006DC00CBFB0346002B23D000F0A6FC114B1B6870
:1006EC00114A1360114B1B68114A13600D4B1222F7
:1006FC001A600E4B12221A600E4B0C221A6001F07B
:10070C00B3FB01F0C1FB01F0CFFB01F0DDFB64207A
:10071C0001F096FA084B094A1A60094B094A1A600B
:10072C0000BF80BD00000020040000200800002055
:10073C000C00002010000020140100202C000020D0
:10074C00180100203000002080B500AFA54B1B68BD
:10075C00013B112B00F2418101A252F823F000BFA2
:10076C00B5070008F9070008B50800085708000885
:10077C00E7090008E7090008E7090008E70900088D
:10078C00E7090008E7090008E7090008E70900087D
:10079C00E7090008E7090008E7090008E70900086D
:1007AC00E70900081309000800F07EFB8D4B0222BC
:1007BC001A608C4B1B688C4A13608C4B1B68184658
:1007CC0001F03EFA642001F063FA884B1B68884AFA
:1007DC0082FB03125211DB17D31A864A1360864B25
:1007EC00844A1A60854B01221A60F9E000F05CFB28
:1007FC00824B01221A6001F013FB0346002B07D039
:10080C00642001F045FA7B4B1B68013B794A13606D
:10081C0001F0E2FA0346012B14D1794B1B68184600
:10082C0001F00EFA6F4B04221A60642001F030FACA
:10083C00734B1B686E4A82FB03125211DB17D31ADF
:10084C006C4A1360FFF740FFCAE06C4B01221A6040
:10085C0000F056FB01F0E4FA0346002B07D06420AD
:10086C0001F016FA634B1B68013B624A136001F0FE
:10087C00B3FA0346012B14D1624B1B68184601F0E6
:10088C00DFF9584B03221A60642001F001FA5D4B2A
:10089C001B68574A82FB03125211DB17D31A554AB5
:1008AC001360FFF711FF9BE0544B01221A6000F01C
:1008BC0011FB01F0B5FA0346002B07D0642001F0C0
:1008CC00E7F94C4B1B68013B4A4A136001F084FA70
:1008DC000346012B14D1454B1B68184601F0B0F9A7
:1008EC00404B02221A60642001F0D2F93F4B1B6886
:1008FC003F4A82FB03125211DB17D31A3D4A136095
:10090C00FFF7E2FE6CE0384B1B68022B1ED13E4B0E
:10091C001B68002B1AD000F087FB334B1B68314A45
:10092C001360394B00221A60642001F0B1F92F4B8F
:10093C001B68184601F084F92C4B1B682C4A82FB6F
:10094C0003125211DB17D31A2A4A1360264B1B6869
:10095C00042B1ED12C4B1B68002B1AD02A4B0022C7
:10096C001A60214B1B681F4A136000F05DFB64206A
:10097C0001F08EF9224B1B68184601F061F9204BEF
:10098C001B681B4A82FB03125211DB17D31A194A3C
:10099C001360154B1B68032B21D11B4B1B68002BC1
:1009AC001DD0194B00221A600F4B1B680D4A1360A7
:1009BC0000F03AFB642001F06BF9124B1B681846EF
:1009CC0001F03EF90F4B1B68094A82FB03125211CE
:1009DC00DB17D31A074A136001E000BF00E000BF29
:1009EC0000BF80BD00000020040000201400002087
:1009FC001F85EB51680000201401002030000020FE
:100A0C001C000020180000207000002080B500AFF2
:100A1C00A54B1B68013B112B00F2418101A252F83E
:100A2C0023F000BF790A0008BD0A0008790B000802
:100A3C001B0B0008AB0C0008AB0C0008AB0C00083F
:100A4C00AB0C0008AB0C0008AB0C0008AB0C00089E
:100A5C00AB0C0008AB0C0008AB0C0008AB0C00088E
:100A6C00AB0C0008AB0C0008D70B000800F08AFA9E
:100A7C008D4B04221A608C4B1B688C4A13608C4B78
:100A8C001B68184601F0F0F8642001F015F9884B4A
:100A9C001B68884A82FB03125211DB17D31A864A51
:100AAC001360864B844A1A60854B01221A60F9E068
:100ABC0000F03CFA824B01221A6001F0C3F90346A4
:100ACC00002B07D0642001F0F7F87B4B1B68013B2F
:100ADC00794A136001F092F90346012B14D1744B3F
:100AEC001B68184601F0C0F86F4B04221A60642092
:100AFC0001F0E2F86E4B1B686E4A82FB0312521136
:100B0C00DB17D31A6C4A1360FFF7DEFDCAE06C4B9F
:100B1C0001221A6000F036FA01F094F90346002B1A
:100B2C0007D0642001F0C8F8634B1B68013B624A94
:100B3C00136001F063F90346012B14D1614B1B6860
:100B4C00184601F091F8584B03221A60642001F00A
:100B5C00B3F85C4B1B68574A82FB03125211DB172C
:100B6C00D31A554A1360FFF7AFFD9BE0544B01229B
:100B7C001A6000F0F1F901F065F90346002B07D07B
:100B8C00642001F099F84C4B1B68013B4A4A1360F6
:100B9C0001F034F90346012B14D14B4B1B6818465A
:100BAC0001F062F8404B02221A60642001F084F8D4
:100BBC00454B1B683F4A82FB03125211DB17D31AB9
:100BCC003D4A1360FFF780FD6CE0384B1B68022B2D
:100BDC001ED13E4B1B68002B1AD000F025FA334B6C
:100BEC001B68314A1360394B00221A60642001F0F3
:100BFC0063F8354B1B68184601F036F8324B1B680E
:100C0C002C4A82FB03125211DB17D31A2A4A1360A7
:100C1C00264B1B68042B1ED12C4B1B68002B1AD0A7
:100C2C002A4B00221A60214B1B681F4A136000F0EC
:100C3C00FBF9642001F040F81D4B1B68184601F0CD
:100C4C0013F81B4B1B681B4A82FB03125211DB1758
:100C5C00D31A194A1360154B1B68032B21D11B4B5C
:100C6C001B68002B1DD0194B00221A600F4B1B6800
:100C7C000D4A136000F0D8F9642001F01DF8114BF7
:100C8C001B68184600F0F0FF0E4B1B68094A82FBEC
:100C9C0003125211DB17D31A074A136001E000BF8D
:100CAC0000E000BF00BF80BD080000200C00002049
:100CBC00280000201F85EB516C000020180100203B
:100CCC0030000020240000202000002074000020B0
:100CDC0080B483B000AF0023FB7120E0FB79144A91
:100CEC000121D154FB79134A0121D154FB79124AC9
:100CFC000121D154FB79114A0121D154FB79104ABD
:100D0C00002142F82310FB790E4A0021D154FB79C3
:100D1C000D4A002122F81310FB790133FB71FB798A
:100D2C00022BDBD900BF00BF0C37BD4680BC70471F
:100D3C00780000207C00002080000020840000202F
:100D4C00C0000020880000208C00002090B583B0EB
:100D5C0000AF0023FB716BE0FA79FB793849895CB1
:100D6C00384AD154FA79FB793749895C344AD154E1
:100D7C00FB79364A32F81330FC791946344801F0C5
:100D8C00C3FB03461A46304B1A55FB792C4AD25CEE
:100D9C00FB792D49CB5C9A4247D1FB79284AD25C2E
:100DAC00FB792849CB5C9A423FD1FB79254AD25C2E
:100DBC00FB792849CB5C9A4223D0FA79FB792149FB
:100DCC00895C244AD154FB79224AD35C002B09D18B
:100DDC00214B4FF4FA721A60FB79204A012142F838
:100DEC00231022E01C4B1B68013B1B4A1360FB7950
:100DFC001B4A002122F81310FB79164A0121D15409
:100E0C0013E0FB79164A32F81330632B09D8FB79BF
:100E1C00134A32F81320013291B2114A22F81310FE
:100E2C0003E0FB790F4A0121D154FB790133FB71AB
:100E3C00FB79022B90D900BF00BF0C37BD4690BD8B
:100E4C007C0000208000002078000020380000206A
:100E5C00000801408400002034000020C000002065
:100E6C008C0000208800002080B483B000AF0346C3
:100E7C00FB71FB79022B01D900230DE0FB79094AA8
:100E8C0052F82330012B06D1FB79064A002142F897
:100E9C002310012300E0002318460C37BD4680BC0C
:100EAC00704700BFC000002080B500AF00220421B5
:100EBC00074801F040FB01221021054801F03BFBE3
:100ECC0001220821024801F036FB00BF80BD00BFA3
:100EDC000008014080B500AF01220421074801F051
:100EEC002AFB01221021054801F025FB00220821D4
:100EFC00024801F020FB00BF80BD00BF000801408C
:100F0C0080B500AF01220421074801F014FB002238
:100F1C001021054801F00FFB01220821024801F0C5
:100F2C000AFB00BF80BD00BF0008014080B500AFC8
:100F3C0000222021074801F0FEFA012280210548F9
:100F4C0001F0F9FA01224021024801F0F4FA00BF45
:100F5C0080BD00BF0008014080B500AF01222021F8
:100F6C00074801F0E8FA01228021054801F0E3FA74
:100F7C0000224021024801F0DEFA00BF80BD00BF14
:100F8C000008014080B500AF01222021074801F084
:100F9C00D2FA00228021054801F0CDFA012240212D
:100FAC00024801F0C8FA00BF80BD00BF0008014034
:100FBC0080B500AF0421024801F0D5FA00BF80BD16
:100FCC000008014080B500AF0821024801F0CBFABF
:100FDC0000BF80BD0008014080B500AF1021024861
:100FEC0001F0C1FA00BF80BD0008014080B500AF20
:100FFC002021024801F0B7FA00BF80BD0008014073
:10100C0080B500AF4021024801F0ADFA00BF80BDB1
:10101C000008014080B500AF8021024801F0A3FA1E
:10102C0000BF80BD0008014080B500AF0122042143
:10103C000E4801F080FA012210210C4801F07BFAD5
:10104C0001220821094801F076FA012220210748E3
:10105C0001F071FA01228021044801F06CFA01229E
:10106C004021024801F067FA00BF80BD0008014032
:10107C0080B500AF00F05EFF00F014F800F09AF8B5
:10108C0000F04CF8064801F0B3FEFFF7E1FAFFF769
:10109C005BFBFFF7BBFCFFF78DF800F0A9FCF6E754
:1010AC00CC00002080B590B000AF07F118032822C7
:1010BC000021184602F04CFA3B1D00221A605A60BF
:1010CC009A60DA601A610223BB610123BB621023B0
:1010DC00FB6200237B6307F11803184601F05CFAEE
:1010EC000346002B01D000F0D5F80F237B600023C2
:1010FC00BB600023FB6000233B6100237B613B1D35
:10110C000021184601F0C8FC0346002B01D000F06A
:10111C00C1F800BF4037BD4680BD000080B586B029
:10112C0000AF07F1080300221A605A609A60DA6077
:10113C003B4600221A605A601D4B4FF080421A60E9
:10114C001B4B41F63F725A60194B00229A60184BA8
:10115C000A22DA60164B00221A61154B00229A61A2
:10116C00134801F0F5FD0346002B01D000F092F876
:10117C004FF48053BB6007F1080319460C4801F08B
:10118C0073FF0346002B01D000F084F800233B6072
:10119C0000237B603B461946054802F04BF9034699
:1011AC00002B01D000F076F800BF1837BD4680BD8B
:1011BC00CC00002080B586B000AF07F108030022F8
:1011CC001A605A609A60DA60294B9B69284A43F08E
:1011DC0004039361264B9B6903F004037B607B68DB
:1011EC00234B9B69224A43F008039361204B9B6974
:1011FC0003F008033B603B68002240F2FC611D4891
:10120C0001F099F9002243F6FF711B4801F093F9A4
:10121C0040F2FC63BB600123FB6000233B610223B3
:10122C007B6107F108031946124800F0F3FF43F6FF
:10123C00FF73BB600123FB6000233B6102237B61D6
:10124C0007F1080319460C4800F0E4FF4FF4604323
:10125C00BB600023FB6001233B6107F108031946C7
:10126C00044800F0D7FF00BF1837BD4680BD00BF53
:10127C000010024000080140000C014080B582B013
:10128C0000AF786000F02CFDFFF760FD00BF083761
:10129C00BD4680BD80B400AF72B600BFFEE7000053
:1012AC0080B582B000AF78607B68092B00F280813A
:1012BC0001A252F823F000BFED120008351300080C
:1012CC007D130008C51300080D1400085514000800
:1012DC009D140008E51400082D150008751500086C
:1012EC0000220121C64801F026F900220221C4483F
:1012FC0001F021F900220421C14801F01CF900225F
:10130C000821BF4801F017F900221021BC4801F058
:10131C0012F900222021BA4801F00DF901224021D6
:10132C00B74801F008F967E101220121B44801F046
:10133C0002F900220221B24801F0FDF8002204213A
:10134C00AF4801F0F8F801220821AD4801F0F3F89C
:10135C0001221021AA4801F0EEF801222021A84810
:10136C0001F0E9F801224021A54801F0E4F843E13D
:10137C0000220121A24801F0DEF800220221A0483F
:10138C0001F0D9F8012204219D4801F0D4F8002283
:10139C0008219B4801F0CFF800221021984801F059
:1013AC00CAF801222021964801F0C5F800224021FC
:1013BC00934801F0C0F81FE100220121904801F090
:1013CC00BAF8002202218E4801F0B5F8002204215F
:1013DC008B4801F0B0F800220821894801F0ABF8E5
:1013EC0001221021864801F0A6F801222021844810
:1013FC0001F0A1F800224021814801F09CF8FBE0AB
:10140C00012201217E4801F096F8002202217C483D
:10141C0001F091F800220421794801F08CF80122A6
:10142C000821774801F087F801221021744801F057
:10143C0082F800222021724801F07DF80022402120
:10144C006F4801F078F8D7E0002201216C4801F0D8
:10145C0072F8012202216A4801F06DF80022042181
:10146C00674801F068F800220821654801F063F82C
:10147C0001221021624801F05EF800222021604810
:10148C0001F059F8002240215D4801F054F8B3E016
:10149C00002201215A4801F04EF80122022158483D
:1014AC0001F049F800220421554801F044F80022CB
:1014BC000821534801F03FF800221021504801F058
:1014CC003AF8002220214E4801F035F80022402144
:1014DC004B4801F030F88FE000220121484801F020
:1014EC002AF800220221464801F025F800220421A6
:1014FC00434801F020F801220821414801F01BF873
:10150C00012210213E4801F016F8012220213C480E
:10151C0001F011F801224021394801F00CF86BE080
:10152C0000220121364801F006F80022022134483D
:10153C0001F001F800220421314800F0FCFF0022E8
:10154C0008212F4800F0F7FF002210212C4800F052
:10155C00F2FF002220212A4800F0EDFF002240215A
:10156C00274800F0E8FF47E000220121244800F062
:10157C00E2FF00220221224800F0DDFF00220421BC
:10158C001F4800F0D8FF002208211D4800F0D3FFAF
:10159C00012210211A4800F0CEFF00222021184809
:1015AC0000F0C9FF00224021154800F0C4FF23E0E1
:1015BC0001220121124800F0BEFF01220221104835
:1015CC0000F0B9FF012204210D4800F0B4FF012204
:1015DC0008210B4800F0AFFF01221021084800F051
:1015EC00AAFF01222021064800F0A5FF012240217C
:1015FC00034800F0A0FF00BF00BF0837BD4680BD08
:10160C00000C014080B582B000AF78607B68092B7C
:10161C0000F2BE8101A252F823F000BF511600085F
:10162C00A5160008F91600084D170008A1170008A8
:10163C00F5170008491800089D180008F118000853
:10164C004519000800228021D04800F074FF0022C8
:10165C004FF48071CD4800F06EFF00224FF4007102
:10166C00CA4800F068FF00224FF48061C74800F0C0
:10167C0062FF00224FF40061C44800F05CFF0022BE
:10168C004FF48051C14800F056FF01224FF4005135
:10169C00BE4800F050FFA5E101228021BB4800F0BC
:1016AC004AFF00224FF48071B84800F044FF00223A
:1016BC004FF40071B54800F03EFF01224FF48061F9
:1016CC00B24800F038FF01224FF40061AF4800F03F
:1016DC0032FF01224FF48051AC4800F02CFF012264
:1016EC004FF40051A94800F026FF7BE10022802135
:1016FC00A64800F020FF00224FF48071A34800F0B0
:10170C001AFF01224FF48061A04800F014FF002260
:10171C004FF480619D4800F00EFF00224FF40061F1
:10172C009A4800F008FF01224FF48051974800F0CE
:10173C0002FF00224FF40051944800F0FCFE51E1EE
:10174C0000220121914800F0F6FE00224FF4807136
:10175C008E4800F0F0FE00224FF400718B4800F030
:10176C00EAFE00224FF48061884800F0E4FE01227A
:10177C004FF40061854800F0DEFE01224FF48051E9
:10178C00824800F0D8FE00224FF400517F4800F050
:10179C00D2FE27E1012280217C4800F0CCFE012200
:1017AC004FF48071794800F0C6FE00224FF40071AE
:1017BC00764800F0C0FE01224FF48061734800F0BF
:1017CC00BAFE01224FF40061704800F0B4FE002212
:1017DC004FF480516D4800F0AEFE00224FF40051E2
:1017EC006A4800F0A8FEFDE000228021674800F066
:1017FC00A2FE01224FF48071644800F09CFE00228E
:10180C004FF40071614800F096FE00224FF48061A5
:10181C005E4800F090FE01224FF400615B4800F03E
:10182C008AFE00224FF48051584800F084FE0022BA
:10183C004FF40051554800F07EFED3E00022802189
:10184C00524800F078FE01224FF480714F4800F0AE
:10185C0072FE00224FF400714C4800F06CFE002226
:10186C004FF48061494800F066FE00224FF400619D
:10187C00464800F060FE00224FF48051434800F0CF
:10188C005AFE00224FF40051404800F054FEA9E0EB
:10189C00002280213D4800F04EFE00224FF4807162
:1018AC003A4800F048FE00224FF40071374800F02F
:1018BC0042FE01224FF48061344800F03CFE0122CC
:1018CC004FF40061314800F036FE01224FF4805194
:1018DC002E4800F030FE01224FF400512B4800F04E
:1018EC002AFE7FE000228021284800F024FE0022FE
:1018FC004FF48071254800F01EFE00224FF4007159
:10190C00224800F018FE00224FF480611F4800F0BE
:10191C0012FE00224FF400611C4800F00CFE002265
:10192C004FF48051194800F006FE00224FF400518C
:10193C00164800F000FE55E000228021134800F00C
:10194C00FAFD00224FF48071104800F0F4FD0022E3
:10195C004FF400710D4800F0EEFD00224FF4806151
:10196C000A4800F0E8FD01224FF40061074800F03E
:10197C00E2FD00224FF48051044800F0DCFD00220F
:10198C004FF40051014800F0D6FD2BE0000C014053
:10199C0001228021154800F0CEFD01224FF4807108
:1019AC00124800F0C8FD01224FF400710F4800F0FE
:1019BC00C2FD01224FF480610C4800F0BCFD0122F5
:1019CC004FF40061094800F0B6FD01224FF480513C
:1019DC00064800F0B0FD01224FF40051034800F01E
:1019EC00AAFD00BF00BF0837BD4680BD000C0140FA
:1019FC0080B500AF00F0DEF90346002B6FD00A2053
:101A0C0000F00AF9374B1B68002B02D0012B2ED0AB
:101A1C005BE0354B4FF6FF72DA60344B1B681A688B
:101A2C00334B83FB02139910D317C91A0B469B0037
:101A3C000B445B00D11A0846FFF732FC2B4B1B689A
:101A4C001B682B4A82FB03129210DB17D31A184621
:101A5C00FFF7D8FD00224FF40071264800F06BFD13
:101A6C0001224FF48061234800F065FD2DE01E4BF0
:101A7C004FF6FF72DA60204B1B681A681C4B83FB15
:101A8C0002139910D317C91A0B469B000B445B0029
:101A9C00D11A0846FFF704FC174B1B681B68144A45
:101AAC0082FB03129210DB17D31A1846FFF7AAFD1C
:101ABC0001224FF400710F4800F03DFD00224FF45D
:101ACC0080610C4800F037FD00BF064B1B680133EA
:101ADC00002B03F00103B8BF5B42024A136000BF46
:101AEC0080BD00BF94000020000C014014010020B8
:101AFC0067666666000801401801002080B485B056
:101B0C0000AF154B9B69144A43F001039361124BD0
:101B1C009B6903F00103BB60BB680F4BDB690E4A8A
:101B2C0043F08053D3610C4BDB6903F080537B6033
:101B3C007B680A4B5B68FB60FB6823F0E063FB602F
:101B4C00FB6843F08063FB60044AFB68536000BF92
:101B5C001437BD4680BC70470010024000000140A5
:101B6C0080B584B000AF78607B681B68B3F1804FA0
:101B7C0013D10C4BDB690B4A43F00103D361094BC6
:101B8C00DB6903F00103FB60FB68002200211C20D1
:101B9C0000F009FB1C2000F022FB00BF1037BD46F3
:101BAC0080BD00BF0010024080B400AFFEE780B4DF
:101BBC0000AFFEE780B400AFFEE780B400AFFEE7F5
:101BCC0080B400AFFEE780B400AF00BFBD4680BC60
:101BDC00704780B400AF00BFBD4680BC704780B476
:101BEC0000AF00BFBD4680BC704780B500AF00F0B1
:101BFC00E7F900BF80BD000080B500AF024801F0DE
:101C0C0043F900BF80BD00BFCC00002080B400AF02
:101C1C0000BFBD4680BC704780B483B000AF786015
:101C2C00054A7B681360054B00221A6000BF0C3715
:101C3C00BD4680BC704700BF98000020AC0000205F
:101C4C0080B483B000AF7860054A7B681360054BA5
:101C5C0000221A6000BF0C37BD4680BC704700BF25
:101C6C009C000020B000002080B483B000AF7860EE
:101C7C00054A7B681360054B00221A6000BF0C37C5
:101C8C00BD4680BC704700BFA0000020B4000020FF
:101C9C0080B483B000AF7860054A7B681360054B55
:101CAC0000221A6000BF0C37BD4680BC704700BFD5
:101CBC00A4000020B800002080B483B000AF78608E
:101CCC00054A7B681360054B00221A6000BF0C3775
:101CDC00BD4680BC704700BFA8000020BC0000209F
:101CEC0080B400AF294B1B68002B0BDD274B1B6806
:101CFC00013B264A1360254B1B68002B02DC244B4E
:101D0C0001221A60234B1B68002B0BDD214B1B6837
:101D1C00013B204A13601F4B1B68002B02DC1E4B3F
:101D2C0001221A601D4B1B68002B0BDD1B4B1B6823
:101D3C00013B1A4A1360194B1B68002B02DC184B31
:101D4C0001221A60174B1B68002B0BDD154B1B680F
:101D5C00013B144A1360134B1B68002B02DC124B23
:101D6C0001221A60114B1B68002B0BDD0F4B1B68FB
:101D7C00013B0E4A13600D4B1B68002B02DC0C4B15
:101D8C0001221A6000BFBD4680BC7047980000203D
:101D9C00AC0000209C000020B0000020A00000201F
:101DAC00B4000020A4000020B8000020A8000020EF
:101DBC00BC00002080B400AF064B1B68012B04D183
:101DCC00044B00221A60012300E000231846BD4694
:101DDC0080BC7047AC00002080B400AF064B1B6881
:101DEC00012B04D1044B00221A60012300E00023D4
:101DFC001846BD4680BC7047B000002080B400AFD0
:101E0C00064B1B68012B04D1044B00221A600123E2
:101E1C0000E000231846BD4680BC7047B40000208B
:101E2C0080B400AF064B1B68012B04D1044B00227D
:101E3C001A60012300E000231846BD4680BC7047A1
:101E4C00B800002080B400AF064B1B68012B04D1F6
:101E5C00044B00221A60012300E000231846BD4603
:101E6C0080BC7047BC00002080B400AF044B002243
:101E7C001A60044B00221A6000BFBD4680BC70473C
:101E8C009C000020B000002080B400AF044B002266
:101E9C001A60044B00221A6000BFBD4680BC70471C
:101EAC00A0000020B400002080B400AF044B00223E
:101EBC001A60044B00221A6000BFBD4680BC7047FC
:101ECC00A4000020B800002080B400AF044B002216
:101EDC001A60044B00221A6000BFBD4680BC7047DC
:101EEC00A8000020BC000020FFF790FE0B480C4916
:101EFC000C4A002302E0D458C4500433C4188C425A
:101F0C00F9D3094A094C002301E013600432A242C0
:101F1C00FBD301F0F9FAFFF7ABF870470000002093
:101F2C004C000020B03500084C000020200100209F
:101F3C00FEE7000080B500AF084B1B68074A43F072
:101F4C0010031360032000F023F90F2000F008F8B1
:101F5C00FFF7D4FD0023184680BD00BF00200240CF
:101F6C0080B582B000AF7860124B1A68124B1B78A8
:101F7C0019464FF47A73B3FBF1F3B2FBF3F3184643
:101F8C0000F03BF90346002B01D001230EE07B68E7
:101F9C000F2B0AD8002279684FF0FF3000F003F9BC
:101FAC00064A7B681360002300E0012318460837BB
:101FBC00BD4680BD400000204800002044000020A9
:101FCC0080B400AF054B1B781A46054B1B681344B5
:101FDC00034A136000BFBD4680BC70474800002018
:101FEC001C01002080B400AF024B1B681846BD4694
:101FFC0080BC70471C01002080B485B000AF7860B5
:10200C007B6803F00703FB600C4BDB68BB60BA68B2
:10201C004FF6FF031340BB60FB681A02BB68134307
:10202C0043F0BF6343F40033BB60044ABB68D36026
:10203C0000BF1437BD4680BC704700BF00ED00E008
:10204C0080B400AF044BDB681B0A03F0070318468F
:10205C00BD4680BC704700BF00ED00E080B483B08B
:10206C0000AF0346FB7197F90730002B0BDBFB79B4
:10207C0003F01F02064997F907305B09012000FAAB
:10208C0002F241F8232000BF0C37BD4680BC7047DC
:10209C0000E100E080B483B000AF03463960FB710F
:1020AC0097F90730002B0ADB3B68DAB20C4997F939
:1020BC0007301201D2B20B4483F800230AE03B68CC
:1020CC00DAB20849FB7903F00F03043B1201D2B2D8
:1020DC000B441A7600BF0C37BD4680BC704700BF5E
:1020EC0000E100E000ED00E080B489B000AFF860E2
:1020FC00B9607A60FB6803F00703FB61FB69C3F10D
:10210C000703042B28BF0423BB61FB690433062B94
:10211C0002D9FB69033B00E000237B614FF0FF32E7
:10212C00BB6902FA03F3DA43BB681A407B699A4035
:10213C004FF0FF317B6901FA03F3D9437B680B4005
:10214C00134318462437BD4680BC704780B582B017
:10215C0000AF78607B68013BB3F1807F01D3012332
:10216C000FE00A4A7B68013B53600F214FF0FF30B0
:10217C00FFF790FF054B00229A60044B07221A6070
:10218C00002318460837BD4680BD00BF10E000E0B4
:10219C0080B582B000AF78607868FFF72DFF00BF84
:1021AC000837BD4680BD80B586B000AF0346B96028
:1021BC007A60FB7300237B61FFF742FF78617A68DA
:1021CC00B9687869FFF790FF024697F90F3011460E
:1021DC001846FFF75FFF00BF1837BD4680BD80B5BE
:1021EC0082B000AF0346FB7197F907301846FFF732
:1021FC0035FF00BF0837BD4680BD80B582B000AF4B
:10220C0078607868FFF7A2FF034618460837BD468A
:10221C0080BD000080B48BB000AF786039600023C3
:10222C007B6200233B6248E101227B6A02FA03F3E2
:10223C00FB613B681B68FA691340BB61BA69FB69B7
:10224C009A4240F037813B685B68A34A93425ED068
:10225C00A14A934275D8A14A934258D09F4A9342BF
:10226C006FD89F4A934252D09D4A934269D89D4A57
:10227C0093424CD09B4A934263D89B4A934246D09C
:10228C00994A93425DD8122B2AD8122B59D801A205
:10229C0052F823F01B230008F5220008072300083E
:1022AC00492300084F2300084F2300084F23000840
:1022BC004F2300084F2300084F2300084F2300082A
:1022CC004F2300084F2300084F2300084F2300081A
:1022DC004F2300084F230008FD220008112300089B
:1022EC00824A934213D02CE03B68DB683B6229E0C6
:1022FC003B68DB6804333B6224E03B68DB680833F3
:10230C003B621FE03B68DB680C333B621AE03B68C6
:10231C009B68002B02D104233B6213E03B689B6853
:10232C00012B05D108233B627B68FA691A6109E02D
:10233C0008233B627B68FA695A6103E000233B6225
:10234C0000E000BFBB69FF2B01D87B6801E07B6814
:10235C0004337B61BB69FF2B02D87B6A9B0002E0D4
:10236C007B6A083B9B003B617B691A680F213B69C8
:10237C0001FA03F3DB431A40396A3B6901FA03F3B0
:10238C001A437B691A603B685B6803F08053002B2F
:10239C0000F09080564B9B69554A43F001039361C2
:1023AC00534B9B6903F00103BB60BB68514A7B6ACA
:1023BC009B08023352F82330FB607B6A03F0030363
:1023CC009B000F2202FA03F3DB43FA681340FB6015
:1023DC007B68494A93420DD07B68484A934207D0A8
:1023EC007B68474A934201D1022304E0032302E0B5
:1023FC00012300E000237A6A02F00302920093406A
:10240C00FA681343FB603B497B6A9B080233FA680A
:10241C0041F823203B685B6803F48013002B06D043
:10242C00384B9A683749BB6913438B6006E0354BD0
:10243C009A68BB69DB43334913408B603B685B682C
:10244C0003F40013002B06D02E4BDA682D49BB6920
:10245C001343CB6006E02B4BDA68BB69DB4329499D
:10246C001340CB603B685B6803F40033002B06D051
:10247C00244B5A682349BB6913434B6006E0214B3C
:10248C005A68BB69DB431F4913404B603B685B6870
:10249C0003F48033002B06D01A4B1A681949BB6918
:1024AC0013430B6006E0174B1A68BB69DB431549F5
:1024BC0013400B607B6A01337B623B681A687B6A52
:1024CC0022FA03F3002B7FF4AFAE00BF00BF2C3712
:1024DC00BD4680BC704700BF0000321000003110B8
:1024EC00000022100000211000001210000011103A
:1024FC00001002400000014000080140000C0140A7
:10250C00001001400004014080B485B000AF786039
:10251C000B467B807B689A687B881340002B02D02B
:10252C000123FB7301E00023FB73FB7B184614377C
:10253C00BD4680BC704780B483B000AF78600B465A
:10254C007B8013467B707B78002B03D07A887B686A
:10255C001A6103E07B881A047B681A6100BF0C3790
:10256C00BD4680BC704780B485B000AF78600B4628
:10257C007B807B68DB68FB607A88FB6813401A04FD
:10258C00FB68D9437B880B401A437B681A6100BFF8
:10259C001437BD4680BC704780B586B000AF7860FC
:1025AC007B68002B01D101236CE27B681B6803F074
:1025BC000103002B00F08780924B5B6803F00C0347
:1025CC00042B0CD08F4B5B6803F00C03082B12D13F
:1025DC008C4B5B6803F48033B3F5803F0BD1894B94
:1025EC001B6803F40033002B6CD07B685B68002BFA
:1025FC0068D1012346E27B685B68B3F5803F06D166
:10260C00804B1B687F4A43F4803313602EE07B6859
:10261C005B68002B0CD17B4B1B687A4A23F480330C
:10262C001360784B1B68774A23F4802313601DE0FA
:10263C007B685B68B3F5A02F0CD1724B1B68714A99
:10264C0043F4802313606F4B1B686E4A43F4803352
:10265C0013600BE06B4B1B686A4A23F480331360E6
:10266C00684B1B68674A23F4802313607B685B68A4
:10267C00002B13D0FFF7B6FC386108E0FFF7B2FC73
:10268C0002463B69D31A642B01D90323FAE15D4B53
:10269C001B6803F40033002BF0D014E0FFF7A2FC0E
:1026AC00386108E0FFF79EFC02463B69D31A642BA5
:1026BC0001D90323E6E1534B1B6803F40033002BD1
:1026CC00F0D100E000BF7B681B6803F00203002B15
:1026DC0063D04C4B5B6803F00C03002B0BD0494BC5
:1026EC005B6803F00C03082B1CD1464B5B6803F4AE
:1026FC008033002B16D1434B1B6803F00203002BD5
:10270C0005D07B681B69012B01D00123BAE13D4B3D
:10271C001B6823F0F8027B685B69DB0039491343C3
:10272C000B603AE07B681B69002B20D0364B0122F2
:10273C001A60FFF757FC386108E0FFF753FC0246BC
:10274C003B69D31A022B01D903239BE12D4B1B6848
:10275C0003F00203002BF0D02A4B1B6823F0F80285
:10276C007B685B69DB00274913430B6015E0264B44
:10277C0000221A60FFF736FC386108E0FFF732FCE4
:10278C0002463B69D31A022B01D903237AE11D4B74
:10279C001B6803F00203002BF0D17B681B6803F06D
:1027AC000803002B3AD07B689B69002B19D0174B80
:1027BC0001221A60FFF716FC386108E0FFF712FCE3
:1027CC0002463B69D31A022B01D903235AE10D4B64
:1027DC005B6A03F00203002BF0D0012000F09AFAA0
:1027EC001CE00A4B00221A60FFF7FCFB38610FE07B
:1027FC00FFF7F8FB02463B69D31A022B08D90323D7
:10280C0040E100BF001002400000424280044242FE
:10281C009E4B5B6A03F00203002BE9D17B681B68BB
:10282C0003F00403002B00F0A6800023FB75974BEC
:10283C00DB6903F08053002B0DD1944BDB69934A79
:10284C0043F08053D361914BDB6903F08053BB6041
:10285C00BB680123FB758E4B1B6803F48073002B44
:10286C0018D18B4B1B688A4A43F480731360FFF7B3
:10287C00B9FB386108E0FFF7B5FB02463B69D31A98
:10288C00642B01D90323FDE0814B1B6803F4807397
:10289C00002BF0D07B68DB68012B06D17B4B1B6ACD
:1028AC007A4A43F0010313622DE07B68DB68002B4E
:1028BC000CD1764B1B6A754A23F001031362734BE0
:1028CC001B6A724A23F0040313621CE07B68DB680A
:1028DC00052B0CD16D4B1B6A6C4A43F0040313623D
:1028EC006A4B1B6A694A43F0010313620BE0674BA6
:1028FC001B6A664A23F001031362644B1B6A634A2A
:10290C0023F0040313627B68DB68002B15D0FFF700
:10291C0069FB38610AE0FFF765FB02463B69D31A95
:10292C0041F28832934201D90323ABE0574B1B6A27
:10293C0003F00203002BEED014E0FFF753FB3861D9
:10294C000AE0FFF74FFB02463B69D31A41F288328B
:10295C00934201D9032395E04C4B1B6A03F002030D
:10296C00002BEED1FB7D012B05D1484BDB69474A8F
:10297C0023F08053D3617B68DB69002B00F08180EE
:10298C00424B5B6803F00C03082B61D07B68DB695E
:10299C00022B46D13F4B00221A60FFF723FB386114
:1029AC0008E0FFF71FFB02463B69D31A022B01D943
:1029BC00032367E0354B1B6803F00073002BF0D149
:1029CC007B681B6AB3F5803F08D1304B5B6823F4FE
:1029DC0000327B689B682D4913434B602B4B5B6823
:1029EC0023F474127B68196A7B685B6A0B43274972
:1029FC0013434B60274B01221A60FFF7F3FA38613F
:102A0C0008E0FFF7EFFA02463B69D31A022B01D913
:102A1C00032337E01D4B1B6803F00073002BF0D031
:102A2C002FE01C4B00221A60FFF7DCFA386108E03B
:102A3C00FFF7D8FA02463B69D31A022B01D90323BC
:102A4C0020E0124B1B6803F00073002BF0D118E050
:102A5C007B68DB69012B01D1012313E00B4B5B6815
:102A6C00FB60FB6803F480327B681B6A9A4206D1D8
:102A7C00FB6803F470127B685B6A9A4201D00123F5
:102A8C0000E0002318461837BD4680BD00100240F8
:102A9C00007000406000424280B584B000AF7860A6
:102AAC0039607B68002B01D10123D0E06A4B1B6895
:102ABC0003F007033A689A4210D9674B1B6823F05E
:102ACC00070265493B6813430B60634B1B6803F0BB
:102ADC0007033A689A4201D00123B8E07B681B686F
:102AEC0003F00203002B20D07B681B6803F0040367
:102AFC00002B05D0594B5B68584A43F4E063536094
:102B0C007B681B6803F00803002B05D0534B5B68F4
:102B1C00524A43F460535360504B5B6823F0F0020D
:102B2C007B689B684D4913434B607B681B6803F0C3
:102B3C000103002B40D07B685B68012B07D1474B0E
:102B4C001B6803F40033002B15D101237FE07B6855
:102B5C005B68022B07D1414B1B6803F00073002B01
:102B6C0009D1012373E03D4B1B6803F00203002BDA
:102B7C0001D101236BE0394B5B6823F003027B68C6
:102B8C005B68364913434B60FFF72CFAF8600AE098
:102B9C00FFF728FA0246FB68D31A41F288329342B7
:102BAC0001D9032353E02D4B5B6803F00C027B68C7
:102BBC005B689B009A42EBD1274B1B6803F0070321
:102BCC003A689A4210D2244B1B6823F00702224920
:102BDC003B6813430B60204B1B6803F007033A68F8
:102BEC009A4201D0012332E07B681B6803F0040396
:102BFC00002B08D0194B5B6823F4E0627B68DB6820
:102C0C00164913434B607B681B6803F00803002BC9
:102C1C0009D0124B5B6823F460527B681B69DB00A4
:102C2C000E4913434B6000F021F802460B4B5B68D6
:102C3C001B0903F00F030A49CB5C22FA03F3094A80
:102C4C001360094B1B681846FFF78AF900231846D6
:102C5C001037BD4680BD00BF00200240001002406E
:102C6C0084350008400000204400002080B487B068
:102C7C0000AF0023FB600023BB6000237B610023BB
:102C8C007B6000233B611E4B5B68FB60FB6803F0C1
:102C9C000C03042B02D0082B03D027E0194B3B610B
:102CAC0027E0FB689B0C03F00F03174AD35C7B6097
:102CBC00FB6803F48033002B10D0114B5B685B0C6A
:102CCC0003F00103114AD35CBB607B680D4A02FB25
:102CDC0003F2BB68B2FBF3F37B6104E07B680C4A44
:102CEC0002FB03F37B617B693B6102E0054B3B61BB
:102CFC0000BF3B6918461C37BD4680BC704700BFFF
:102D0C000010024000127A0094350008A435000827
:102D1C0000093D0080B485B000AF78600A4B1B6899
:102D2C000A4AA2FB03235B0A7A6802FB03F3FB60EB
:102D3C0000BFFB685A1EFA60002BF9D100BF00BF20
:102D4C001437BD4680BC704740000020D34D621044
:102D5C0080B582B000AF78607B68002B01D1012375
:102D6C0041E07B6893F83D30DBB2002B06D17B68E9
:102D7C00002283F83C207868FEF7F2FE7B68022282
:102D8C0083F83D207B681A687B680433194610462B
:102D9C0000F056FA7B68012283F846207B680122FA
:102DAC0083F83E207B68012283F83F207B68012258
:102DBC0083F840207B68012283F841207B68012244
:102DCC0083F842207B68012283F843207B68012230
:102DDC0083F844207B68012283F845207B6801221C
:102DEC0083F83D20002318460837BD4680BD0000FF
:102DFC0080B485B000AF78607B6893F83D30DBB26F
:102E0C00012B01D0012335E07B68022283F83D20A1
:102E1C007B681B68DA687B681B6842F00102DA6029
:102E2C007B681B68164A934209D07B681B68B3F118
:102E3C00804F04D07B681B68124A934211D17B6887
:102E4C001B689B6803F00703FB60FB68062B10D024
:102E5C007B681B681A687B681B6842F001021A6069
:102E6C0007E07B681B681A687B681B6842F00102EC
:102E7C001A60002318461437BD4680BC704700BF4B
:102E8C00002C01400004004080B584B000AF786095
:102E9C007B681B68DB68FB607B681B681B69BB601D
:102EAC00BB6803F00203002B20D0FB6803F0020385
:102EBC00002B1BD07B681B686FF002021A617B68C9
:102ECC0001221A777B681B689B6903F00303002BB4
:102EDC0003D0786800F098F905E0786800F08BF979
:102EEC00786800F09AF97B6800221A77BB6803F0C7
:102EFC000403002B20D0FB6803F00403002B1BD031
:102F0C007B681B686FF004021A617B6802221A77D7
:102F1C007B681B689B6903F44073002B03D07868B3
:102F2C0000F072F905E0786800F065F9786800F057
:102F3C0074F97B6800221A77BB6803F00803002B36
:102F4C0020D0FB6803F00803002B1BD07B681B68A8
:102F5C006FF008021A617B6804221A777B681B6881
:102F6C00DB6903F00303002B03D0786800F04CF905
:102F7C0005E0786800F03FF9786800F04EF97B685E
:102F8C0000221A77BB6803F01003002B20D0FB68DB
:102F9C0003F01003002B1BD07B681B686FF0100232
:102FAC001A617B6808221A777B681B68DB6903F45B
:102FBC004073002B03D0786800F026F905E07868A0
:102FCC0000F019F9786800F028F97B6800221A776C
:102FDC00BB6803F00103002B0CD0FB6803F001036A
:102FEC00002B07D07B681B686FF001021A617868B0
:102FFC00FEF744F9BB6803F08003002B0CD0FB6890
:10300C0003F08003002B07D07B681B686FF08002F5
:10301C001A61786800F06FFABB6803F04003002B6C
:10302C000CD0FB6803F04003002B07D07B681B68B7
:10303C006FF040021A61786800F0F8F8BB6803F092
:10304C002003002B0CD0FB6803F02003002B07D0CF
:10305C007B681B686FF020021A61786800F042FAF6
:10306C0000BF1037BD4680BD80B584B000AF78601E
:10307C0039600023FB737B6893F83C30012B01D142
:10308C000223B4E07B68012283F83C207B68022297
:10309C0083F83D207B681B689B68BB60BB6823F092
:1030AC007703BB60BB6823F47F43BB607B681B6802
:1030BC00BA689A603B681B68B3F5005F3ED0B3F505
:1030CC00005F00F28780B3F5805F00F08680B3F577
:1030DC00805F7FD8702B1AD0702B7BD8602B50D090
:1030EC00602B77D8502B3CD0502B73D8402B58D01A
:1030FC00402B6FD8302B64D0302B6BD8202B60D06A
:10310C00202B67D8002B5CD0102B5AD062E07B6848
:10311C0018683B6899683B685A683B68DB6800F044
:10312C006AF97B681B689B68BB60BB6843F07703DC
:10313C00BB607B681B68BA689A604FE07B68186854
:10314C003B6899683B685A683B68DB6800F053F948
:10315C007B681B689A687B681B6842F480429A60A3
:10316C003CE07B6818683B6859683B68DB681A462A
:10317C0000F0CAF87B681B685021184600F021F952
:10318C002CE07B6818683B6859683B68DB681A461A
:10319C0000F0E8F87B681B686021184600F011F914
:1031AC001CE07B6818683B6859683B68DB681A460A
:1031BC0000F0AAF87B681B684021184600F001F962
:1031CC000CE07B681A683B681B681946104600F0D7
:1031DC00F8F803E00123FB7300E000BF7B680122D9
:1031EC0083F83D207B68002283F83C20FB7B18464B
:1031FC001037BD4680BD80B483B000AF786000BF8F
:10320C000C37BD4680BC704780B483B000AF78608B
:10321C0000BF0C37BD4680BC704780B483B000AF94
:10322C00786000BF0C37BD4680BC704780B483B05B
:10323C0000AF786000BF0C37BD4680BC7047000003
:10324C0080B485B000AF786039607B681B68FB6028
:10325C007B682B4A934207D07B68B3F1804F03D035
:10326C007B68284A934208D1FB6823F07003FB600B
:10327C003B685B68FA681343FB607B68204A9342A7
:10328C0007D07B68B3F1804F03D07B681D4A934213
:10329C0008D1FB6823F44073FB603B68DB68FA6879
:1032AC001343FB60FB6823F080023B685B691343AC
:1032BC00FB607B68FA681A603B689A687B68DA6224
:1032CC003B681A687B689A627B680D4A934203D10B
:1032DC003B681A697B681A637B6801225A617B68B8
:1032EC001B6903F00103002B05D07B681B6923F0DD
:1032FC0001027B681A6100BF1437BD4680BC704761
:10330C00002C01400004004080B487B000AFF8608E
:10331C00B9607A60FB681B6A7B61FB681B6A23F0EF
:10332C000102FB681A62FB689B693B613B6923F0F5
:10333C00F0033B617B681B013A6913433B617B697A
:10334C0023F00A037B617A69BB6813437B61FB68DA
:10335C003A699A61FB687A691A6200BF1C37BD46EC
:10336C0080BC704780B487B000AFF860B9607A60F9
:10337C00FB681B6A7B61FB681B6A23F01002FB680D
:10338C001A62FB689B693B613B6923F470433B61A8
:10339C007B681B033A6913433B617B6923F0A003F1
:1033AC007B61BB681B017A6913437B61FB683A69DB
:1033BC009A61FB687A691A6200BF1C37BD4680BCF3
:1033CC00704780B485B000AF786039607B689B68CB
:1033DC00FB60FB6823F07003FB603A68FB681343E7
:1033EC0043F00703FB607B68FA689A6000BF1437F0
:1033FC00BD4680BC704780B487B000AFF860B96040
:10340C007A603B60FB689B687B617B6923F47F433C
:10341C007B613B681A027B681A43BB6813437A6969
:10342C0013437B61FB687A699A6000BF1C37BD4609
:10343C0080BC704780B485B000AF786039607B6821
:10344C0093F83C30012B01D1022341E07B6801222F
:10345C0083F83C207B68022283F83D207B681B6844
:10346C005B68FB607B681B689B68BB60FB6823F038
:10347C007003FB603B681B68FA681343FB607B6856
:10348C001B68FA685A607B681B68144A934209D01F
:10349C007B681B68B3F1804F04D07B681B68104AB3
:1034AC0093420CD1BB6823F08003BB603B685B6824
:1034BC00BA681343BB607B681B68BA689A607B6808
:1034CC00012283F83D207B68002283F83C200023F6
:1034DC0018461437BD4680BC704700BF002C014015
:1034EC000004004080B483B000AF786000BF0C379C
:1034FC00BD4680BC704780B483B000AF786000BF1D
:10350C000C37BD4680BC704770B500260C4D0D4C79
:10351C00641BA410A64209D100F022F800260A4D23
:10352C000A4C641BA410A64205D170BD55F8043B8F
:10353C0098470136EEE755F8043B98470136F2E719
:10354C00A8350008A8350008A8350008AC350008D7
:10355C0003460244934200D1704703F8011BF9E77C
:10356C00F8B500BFF8BC08BC9E467047F8B500BF64
:08357C00F8BC08BC9E46704734
:10358400000000000000000001020304060708090F
:1035940002030405060708090A0B0C0D0E0F101090
:0435A4000102000020
:0435A80031010008E5
:0435AC000D01000805
:1035B0000100000001000000010000000100000007
:1035C00012000000F4010000C80000002C010000FF
:1035D000F4010000C80000002C0100000100000000
:1035E00001000000F4010000002000400080000005
:0C35F00000127A00100000000100000032
:0400000508001EF5DC
:00000001FF
